{
  "_format": "hh-sol-artifact-1",
  "contractName": "RealEstateTokenization",
  "sourceName": "contracts/RealEstateTokenization.sol",
  "abi": [
    {
      "inputs": [
        {
          "internalType": "string",
          "name": "uri",
          "type": "string"
        }
      ],
      "stateMutability": "nonpayable",
      "type": "constructor"
    },
    {
      "inputs": [
        {
          "internalType": "address",
          "name": "sender",
          "type": "address"
        },
        {
          "internalType": "uint256",
          "name": "balance",
          "type": "uint256"
        },
        {
          "internalType": "uint256",
          "name": "needed",
          "type": "uint256"
        },
        {
          "internalType": "uint256",
          "name": "tokenId",
          "type": "uint256"
        }
      ],
      "name": "ERC1155InsufficientBalance",
      "type": "error"
    },
    {
      "inputs": [
        {
          "internalType": "address",
          "name": "approver",
          "type": "address"
        }
      ],
      "name": "ERC1155InvalidApprover",
      "type": "error"
    },
    {
      "inputs": [
        {
          "internalType": "uint256",
          "name": "idsLength",
          "type": "uint256"
        },
        {
          "internalType": "uint256",
          "name": "valuesLength",
          "type": "uint256"
        }
      ],
      "name": "ERC1155InvalidArrayLength",
      "type": "error"
    },
    {
      "inputs": [
        {
          "internalType": "address",
          "name": "operator",
          "type": "address"
        }
      ],
      "name": "ERC1155InvalidOperator",
      "type": "error"
    },
    {
      "inputs": [
        {
          "internalType": "address",
          "name": "receiver",
          "type": "address"
        }
      ],
      "name": "ERC1155InvalidReceiver",
      "type": "error"
    },
    {
      "inputs": [
        {
          "internalType": "address",
          "name": "sender",
          "type": "address"
        }
      ],
      "name": "ERC1155InvalidSender",
      "type": "error"
    },
    {
      "inputs": [
        {
          "internalType": "address",
          "name": "operator",
          "type": "address"
        },
        {
          "internalType": "address",
          "name": "owner",
          "type": "address"
        }
      ],
      "name": "ERC1155MissingApprovalForAll",
      "type": "error"
    },
    {
      "inputs": [
        {
          "internalType": "address",
          "name": "owner",
          "type": "address"
        }
      ],
      "name": "OwnableInvalidOwner",
      "type": "error"
    },
    {
      "inputs": [
        {
          "internalType": "address",
          "name": "account",
          "type": "address"
        }
      ],
      "name": "OwnableUnauthorizedAccount",
      "type": "error"
    },
    {
      "anonymous": false,
      "inputs": [
        {
          "indexed": true,
          "internalType": "address",
          "name": "account",
          "type": "address"
        },
        {
          "indexed": true,
          "internalType": "address",
          "name": "operator",
          "type": "address"
        },
        {
          "indexed": false,
          "internalType": "bool",
          "name": "approved",
          "type": "bool"
        }
      ],
      "name": "ApprovalForAll",
      "type": "event"
    },
    {
      "anonymous": false,
      "inputs": [
        {
          "indexed": true,
          "internalType": "uint64",
          "name": "propertyId",
          "type": "uint64"
        },
        {
          "indexed": true,
          "internalType": "address",
          "name": "admin",
          "type": "address"
        },
        {
          "indexed": false,
          "internalType": "uint256",
          "name": "amount",
          "type": "uint256"
        }
      ],
      "name": "CapitalWithdrawn",
      "type": "event"
    },
    {
      "anonymous": false,
      "inputs": [
        {
          "indexed": true,
          "internalType": "address",
          "name": "user",
          "type": "address"
        }
      ],
      "name": "KycApproved",
      "type": "event"
    },
    {
      "anonymous": false,
      "inputs": [
        {
          "indexed": true,
          "internalType": "address",
          "name": "user",
          "type": "address"
        }
      ],
      "name": "KycRevoked",
      "type": "event"
    },
    {
      "anonymous": false,
      "inputs": [
        {
          "indexed": true,
          "internalType": "address",
          "name": "previousOwner",
          "type": "address"
        },
        {
          "indexed": true,
          "internalType": "address",
          "name": "newOwner",
          "type": "address"
        }
      ],
      "name": "OwnershipTransferred",
      "type": "event"
    },
    {
      "anonymous": false,
      "inputs": [
        {
          "indexed": true,
          "internalType": "uint64",
          "name": "propertyId",
          "type": "uint64"
        },
        {
          "indexed": true,
          "internalType": "address",
          "name": "admin",
          "type": "address"
        },
        {
          "indexed": false,
          "internalType": "uint256",
          "name": "pricePerShare",
          "type": "uint256"
        },
        {
          "indexed": false,
          "internalType": "uint256",
          "name": "maxShares",
          "type": "uint256"
        }
      ],
      "name": "PropertyInitialized",
      "type": "event"
    },
    {
      "anonymous": false,
      "inputs": [
        {
          "indexed": true,
          "internalType": "uint64",
          "name": "propertyId",
          "type": "uint64"
        },
        {
          "indexed": true,
          "internalType": "address",
          "name": "buyer",
          "type": "address"
        },
        {
          "indexed": true,
          "internalType": "address",
          "name": "receiver",
          "type": "address"
        },
        {
          "indexed": false,
          "internalType": "uint256",
          "name": "amount",
          "type": "uint256"
        },
        {
          "indexed": false,
          "internalType": "uint256",
          "name": "totalPaid",
          "type": "uint256"
        }
      ],
      "name": "SharesBought",
      "type": "event"
    },
    {
      "anonymous": false,
      "inputs": [
        {
          "indexed": true,
          "internalType": "address",
          "name": "operator",
          "type": "address"
        },
        {
          "indexed": true,
          "internalType": "address",
          "name": "from",
          "type": "address"
        },
        {
          "indexed": true,
          "internalType": "address",
          "name": "to",
          "type": "address"
        },
        {
          "indexed": false,
          "internalType": "uint256[]",
          "name": "ids",
          "type": "uint256[]"
        },
        {
          "indexed": false,
          "internalType": "uint256[]",
          "name": "values",
          "type": "uint256[]"
        }
      ],
      "name": "TransferBatch",
      "type": "event"
    },
    {
      "anonymous": false,
      "inputs": [
        {
          "indexed": true,
          "internalType": "address",
          "name": "operator",
          "type": "address"
        },
        {
          "indexed": true,
          "internalType": "address",
          "name": "from",
          "type": "address"
        },
        {
          "indexed": true,
          "internalType": "address",
          "name": "to",
          "type": "address"
        },
        {
          "indexed": false,
          "internalType": "uint256",
          "name": "id",
          "type": "uint256"
        },
        {
          "indexed": false,
          "internalType": "uint256",
          "name": "value",
          "type": "uint256"
        }
      ],
      "name": "TransferSingle",
      "type": "event"
    },
    {
      "anonymous": false,
      "inputs": [
        {
          "indexed": false,
          "internalType": "string",
          "name": "value",
          "type": "string"
        },
        {
          "indexed": true,
          "internalType": "uint256",
          "name": "id",
          "type": "uint256"
        }
      ],
      "name": "URI",
      "type": "event"
    },
    {
      "stateMutability": "payable",
      "type": "fallback"
    },
    {
      "inputs": [
        {
          "internalType": "address",
          "name": "user",
          "type": "address"
        }
      ],
      "name": "approveUser",
      "outputs": [],
      "stateMutability": "nonpayable",
      "type": "function"
    },
    {
      "inputs": [
        {
          "internalType": "address",
          "name": "account",
          "type": "address"
        },
        {
          "internalType": "uint256",
          "name": "id",
          "type": "uint256"
        }
      ],
      "name": "balanceOf",
      "outputs": [
        {
          "internalType": "uint256",
          "name": "",
          "type": "uint256"
        }
      ],
      "stateMutability": "view",
      "type": "function"
    },
    {
      "inputs": [
        {
          "internalType": "address[]",
          "name": "accounts",
          "type": "address[]"
        },
        {
          "internalType": "uint256[]",
          "name": "ids",
          "type": "uint256[]"
        }
      ],
      "name": "balanceOfBatch",
      "outputs": [
        {
          "internalType": "uint256[]",
          "name": "",
          "type": "uint256[]"
        }
      ],
      "stateMutability": "view",
      "type": "function"
    },
    {
      "inputs": [
        {
          "internalType": "uint64",
          "name": "propertyId",
          "type": "uint64"
        },
        {
          "internalType": "address",
          "name": "receiver",
          "type": "address"
        },
        {
          "internalType": "uint256",
          "name": "amount",
          "type": "uint256"
        },
        {
          "internalType": "uint256",
          "name": "pricePaid",
          "type": "uint256"
        }
      ],
      "name": "buyShares",
      "outputs": [],
      "stateMutability": "nonpayable",
      "type": "function"
    },
    {
      "inputs": [
        {
          "internalType": "uint64",
          "name": "propertyId",
          "type": "uint64"
        },
        {
          "internalType": "address",
          "name": "newAdmin",
          "type": "address"
        }
      ],
      "name": "changePropertyAdmin",
      "outputs": [],
      "stateMutability": "nonpayable",
      "type": "function"
    },
    {
      "inputs": [
        {
          "internalType": "uint256",
          "name": "id",
          "type": "uint256"
        }
      ],
      "name": "exists",
      "outputs": [
        {
          "internalType": "bool",
          "name": "",
          "type": "bool"
        }
      ],
      "stateMutability": "view",
      "type": "function"
    },
    {
      "inputs": [
        {
          "internalType": "uint64",
          "name": "propertyId",
          "type": "uint64"
        }
      ],
      "name": "getProperty",
      "outputs": [
        {
          "components": [
            {
              "internalType": "uint64",
              "name": "propertyId",
              "type": "uint64"
            },
            {
              "internalType": "address",
              "name": "admin",
              "type": "address"
            },
            {
              "internalType": "uint256",
              "name": "pricePerShare",
              "type": "uint256"
            },
            {
              "internalType": "uint256",
              "name": "maxShares",
              "type": "uint256"
            },
            {
              "internalType": "uint256",
              "name": "sharesSold",
              "type": "uint256"
            },
            {
              "internalType": "bool",
              "name": "exists",
              "type": "bool"
            }
          ],
          "internalType": "struct RealEstateTokenization.PropertyConfig",
          "name": "",
          "type": "tuple"
        }
      ],
      "stateMutability": "view",
      "type": "function"
    },
    {
      "inputs": [
        {
          "internalType": "uint64",
          "name": "propertyId",
          "type": "uint64"
        },
        {
          "internalType": "uint256",
          "name": "pricePerShare",
          "type": "uint256"
        },
        {
          "internalType": "uint256",
          "name": "maxShares",
          "type": "uint256"
        }
      ],
      "name": "initializeProperty",
      "outputs": [],
      "stateMutability": "nonpayable",
      "type": "function"
    },
    {
      "inputs": [
        {
          "internalType": "address",
          "name": "account",
          "type": "address"
        },
        {
          "internalType": "address",
          "name": "operator",
          "type": "address"
        }
      ],
      "name": "isApprovedForAll",
      "outputs": [
        {
          "internalType": "bool",
          "name": "",
          "type": "bool"
        }
      ],
      "stateMutability": "view",
      "type": "function"
    },
    {
      "inputs": [
        {
          "internalType": "address",
          "name": "user",
          "type": "address"
        }
      ],
      "name": "isKycVerified",
      "outputs": [
        {
          "internalType": "bool",
          "name": "",
          "type": "bool"
        }
      ],
      "stateMutability": "view",
      "type": "function"
    },
    {
      "inputs": [
        {
          "internalType": "address",
          "name": "",
          "type": "address"
        }
      ],
      "name": "kycVerified",
      "outputs": [
        {
          "internalType": "bool",
          "name": "",
          "type": "bool"
        }
      ],
      "stateMutability": "view",
      "type": "function"
    },
    {
      "inputs": [],
      "name": "owner",
      "outputs": [
        {
          "internalType": "address",
          "name": "",
          "type": "address"
        }
      ],
      "stateMutability": "view",
      "type": "function"
    },
    {
      "inputs": [
        {
          "internalType": "uint64",
          "name": "",
          "type": "uint64"
        }
      ],
      "name": "properties",
      "outputs": [
        {
          "internalType": "uint64",
          "name": "propertyId",
          "type": "uint64"
        },
        {
          "internalType": "address",
          "name": "admin",
          "type": "address"
        },
        {
          "internalType": "uint256",
          "name": "pricePerShare",
          "type": "uint256"
        },
        {
          "internalType": "uint256",
          "name": "maxShares",
          "type": "uint256"
        },
        {
          "internalType": "uint256",
          "name": "sharesSold",
          "type": "uint256"
        },
        {
          "internalType": "bool",
          "name": "exists",
          "type": "bool"
        }
      ],
      "stateMutability": "view",
      "type": "function"
    },
    {
      "inputs": [],
      "name": "renounceOwnership",
      "outputs": [],
      "stateMutability": "nonpayable",
      "type": "function"
    },
    {
      "inputs": [
        {
          "internalType": "address",
          "name": "user",
          "type": "address"
        }
      ],
      "name": "revokeUser",
      "outputs": [],
      "stateMutability": "nonpayable",
      "type": "function"
    },
    {
      "inputs": [
        {
          "internalType": "address",
          "name": "from",
          "type": "address"
        },
        {
          "internalType": "address",
          "name": "to",
          "type": "address"
        },
        {
          "internalType": "uint256[]",
          "name": "ids",
          "type": "uint256[]"
        },
        {
          "internalType": "uint256[]",
          "name": "values",
          "type": "uint256[]"
        },
        {
          "internalType": "bytes",
          "name": "data",
          "type": "bytes"
        }
      ],
      "name": "safeBatchTransferFrom",
      "outputs": [],
      "stateMutability": "nonpayable",
      "type": "function"
    },
    {
      "inputs": [
        {
          "internalType": "address",
          "name": "from",
          "type": "address"
        },
        {
          "internalType": "address",
          "name": "to",
          "type": "address"
        },
        {
          "internalType": "uint256",
          "name": "id",
          "type": "uint256"
        },
        {
          "internalType": "uint256",
          "name": "value",
          "type": "uint256"
        },
        {
          "internalType": "bytes",
          "name": "data",
          "type": "bytes"
        }
      ],
      "name": "safeTransferFrom",
      "outputs": [],
      "stateMutability": "nonpayable",
      "type": "function"
    },
    {
      "inputs": [
        {
          "internalType": "address",
          "name": "operator",
          "type": "address"
        },
        {
          "internalType": "bool",
          "name": "approved",
          "type": "bool"
        }
      ],
      "name": "setApprovalForAll",
      "outputs": [],
      "stateMutability": "nonpayable",
      "type": "function"
    },
    {
      "inputs": [
        {
          "internalType": "bytes4",
          "name": "interfaceId",
          "type": "bytes4"
        }
      ],
      "name": "supportsInterface",
      "outputs": [
        {
          "internalType": "bool",
          "name": "",
          "type": "bool"
        }
      ],
      "stateMutability": "view",
      "type": "function"
    },
    {
      "inputs": [],
      "name": "totalSupply",
      "outputs": [
        {
          "internalType": "uint256",
          "name": "",
          "type": "uint256"
        }
      ],
      "stateMutability": "view",
      "type": "function"
    },
    {
      "inputs": [
        {
          "internalType": "uint256",
          "name": "id",
          "type": "uint256"
        }
      ],
      "name": "totalSupply",
      "outputs": [
        {
          "internalType": "uint256",
          "name": "",
          "type": "uint256"
        }
      ],
      "stateMutability": "view",
      "type": "function"
    },
    {
      "inputs": [
        {
          "internalType": "address",
          "name": "newOwner",
          "type": "address"
        }
      ],
      "name": "transferOwnership",
      "outputs": [],
      "stateMutability": "nonpayable",
      "type": "function"
    },
    {
      "inputs": [
        {
          "internalType": "uint256",
          "name": "",
          "type": "uint256"
        }
      ],
      "name": "uri",
      "outputs": [
        {
          "internalType": "string",
          "name": "",
          "type": "string"
        }
      ],
      "stateMutability": "view",
      "type": "function"
    },
    {
      "inputs": [
        {
          "internalType": "uint64",
          "name": "propertyId",
          "type": "uint64"
        },
        {
          "internalType": "uint256",
          "name": "amount",
          "type": "uint256"
        }
      ],
      "name": "withdrawCapital",
      "outputs": [],
      "stateMutability": "nonpayable",
      "type": "function"
    },
    {
      "stateMutability": "payable",
      "type": "receive"
    }
  ],
  "bytecode": "0x608060405234801561001057600080fd5b506040516146d73803806146d78339818101604052810190610032919061031a565b3381610043816100cc60201b60201c565b50600073ffffffffffffffffffffffffffffffffffffffff168173ffffffffffffffffffffffffffffffffffffffff16036100b65760006040517f1e4fbdf70000000000000000000000000000000000000000000000000000000081526004016100ad91906103a4565b60405180910390fd5b6100c5816100df60201b60201c565b50506106b2565b80600290816100db91906105e0565b5050565b6000600560009054906101000a900473ffffffffffffffffffffffffffffffffffffffff16905081600560006101000a81548173ffffffffffffffffffffffffffffffffffffffff021916908373ffffffffffffffffffffffffffffffffffffffff1602179055508173ffffffffffffffffffffffffffffffffffffffff168173ffffffffffffffffffffffffffffffffffffffff167f8be0079c531659141344cd1fd0a4f28419497f9722a3daafe3b4186f6b6457e060405160405180910390a35050565b6000604051905090565b600080fd5b600080fd5b600080fd5b600080fd5b6000601f19601f8301169050919050565b7f4e487b7100000000000000000000000000000000000000000000000000000000600052604160045260246000fd5b61020c826101c3565b810181811067ffffffffffffffff8211171561022b5761022a6101d4565b5b80604052505050565b600061023e6101a5565b905061024a8282610203565b919050565b600067ffffffffffffffff82111561026a576102696101d4565b5b610273826101c3565b9050602081019050919050565b60005b8381101561029e578082015181840152602081019050610283565b60008484015250505050565b60006102bd6102b88461024f565b610234565b9050828152602081018484840111156102d9576102d86101be565b5b6102e4848285610280565b509392505050565b600082601f830112610301576103006101b9565b5b81516103118482602086016102aa565b91505092915050565b6000602082840312156103305761032f6101af565b5b600082015167ffffffffffffffff81111561034e5761034d6101b4565b5b61035a848285016102ec565b91505092915050565b600073ffffffffffffffffffffffffffffffffffffffff82169050919050565b600061038e82610363565b9050919050565b61039e81610383565b82525050565b60006020820190506103b96000830184610395565b92915050565b600081519050919050565b7f4e487b7100000000000000000000000000000000000000000000000000000000600052602260045260246000fd5b6000600282049050600182168061041157607f821691505b602082108103610424576104236103ca565b5b50919050565b60008190508160005260206000209050919050565b60006020601f8301049050919050565b600082821b905092915050565b60006008830261048c7fffffffffffffffffffffffffffffffffffffffffffffffffffffffffffffffff8261044f565b610496868361044f565b95508019841693508086168417925050509392505050565b6000819050919050565b6000819050919050565b60006104dd6104d86104d3846104ae565b6104b8565b6104ae565b9050919050565b6000819050919050565b6104f7836104c2565b61050b610503826104e4565b84845461045c565b825550505050565b600090565b610520610513565b61052b8184846104ee565b505050565b5b8181101561054f57610544600082610518565b600181019050610531565b5050565b601f821115610594576105658161042a565b61056e8461043f565b8101602085101561057d578190505b6105916105898561043f565b830182610530565b50505b505050565b600082821c905092915050565b60006105b760001984600802610599565b1980831691505092915050565b60006105d083836105a6565b9150826002028217905092915050565b6105e9826103bf565b67ffffffffffffffff811115610602576106016101d4565b5b61060c82546103f9565b610617828285610553565b600060209050601f83116001811461064a5760008415610638578287015190505b61064285826105c4565b8655506106aa565b601f1984166106588661042a565b60005b828110156106805784890151825560018201915060208501945060208101905061065b565b8683101561069d5784890151610699601f8916826105a6565b8355505b6001600288020188555050505b505050505050565b614016806106c16000396000f3fe60806040526004361061014e5760003560e01c80639ee1fc18116100b6578063bd85b0391161006f578063bd85b039146104de578063d624fdb61461051b578063e985e9c514610544578063ef097fc414610581578063f242432a146105aa578063f2fde38b146105d35761014f565b80639ee1fc1814610393578063a22cb465146103d0578063a5410a66146103f9578063acbd857f14610436578063ae4052a914610473578063bcb8eb091461049c5761014f565b80632eb2c2d6116101085780632eb2c2d6146102855780634e1273f4146102ae5780634f558e79146102eb578063715018a6146103285780637932c3db1461033f5780638da5cb5b146103685761014f565b8062fdd58e1461015157806301ffc9a71461018e5780630e89341c146101cb578063178023611461020857806318160ddd146102315780632684977e1461025c5761014f565b5b005b34801561015d57600080fd5b5061017860048036038101906101739190612b3a565b6105fc565b6040516101859190612b89565b60405180910390f35b34801561019a57600080fd5b506101b560048036038101906101b09190612bfc565b610656565b6040516101c29190612c44565b60405180910390f35b3480156101d757600080fd5b506101f260048036038101906101ed9190612c5f565b610738565b6040516101ff9190612d1c565b60405180910390f35b34801561021457600080fd5b5061022f600480360381019061022a9190612d7e565b6107cc565b005b34801561023d57600080fd5b506102466109db565b6040516102539190612b89565b60405180910390f35b34801561026857600080fd5b50610283600480360381019061027e9190612dbe565b6109e5565b005b34801561029157600080fd5b506102ac60048036038101906102a79190613022565b610cd2565b005b3480156102ba57600080fd5b506102d560048036038101906102d091906131b4565b610d7a565b6040516102e291906132ea565b60405180910390f35b3480156102f757600080fd5b50610312600480360381019061030d9190612c5f565b610e83565b60405161031f9190612c44565b60405180910390f35b34801561033457600080fd5b5061033d610e97565b005b34801561034b57600080fd5b506103666004803603810190610361919061330c565b610eab565b005b34801561037457600080fd5b5061037d611140565b60405161038a919061336e565b60405180910390f35b34801561039f57600080fd5b506103ba60048036038101906103b59190613389565b61116a565b6040516103c7919061345e565b60405180910390f35b3480156103dc57600080fd5b506103f760048036038101906103f291906134a5565b6112e3565b005b34801561040557600080fd5b50610420600480360381019061041b91906134e5565b6112f9565b60405161042d9190612c44565b60405180910390f35b34801561044257600080fd5b5061045d600480360381019061045891906134e5565b611319565b60405161046a9190612c44565b60405180910390f35b34801561047f57600080fd5b5061049a60048036038101906104959190613512565b61136f565b005b3480156104a857600080fd5b506104c360048036038101906104be9190613389565b611632565b6040516104d596959493929190613561565b60405180910390f35b3480156104ea57600080fd5b5061050560048036038101906105009190612c5f565b6116af565b6040516105129190612b89565b60405180910390f35b34801561052757600080fd5b50610542600480360381019061053d91906134e5565b6116cc565b005b34801561055057600080fd5b5061056b600480360381019061056691906135c2565b6117e1565b6040516105789190612c44565b60405180910390f35b34801561058d57600080fd5b506105a860048036038101906105a391906134e5565b611875565b005b3480156105b657600080fd5b506105d160048036038101906105cc9190613602565b61198a565b005b3480156105df57600080fd5b506105fa60048036038101906105f591906134e5565b611a32565b005b600080600083815260200190815260200160002060008473ffffffffffffffffffffffffffffffffffffffff1673ffffffffffffffffffffffffffffffffffffffff16815260200190815260200160002054905092915050565b60007fd9b67a26000000000000000000000000000000000000000000000000000000007bffffffffffffffffffffffffffffffffffffffffffffffffffffffff1916827bffffffffffffffffffffffffffffffffffffffffffffffffffffffff1916148061072157507f0e89341c000000000000000000000000000000000000000000000000000000007bffffffffffffffffffffffffffffffffffffffffffffffffffffffff1916827bffffffffffffffffffffffffffffffffffffffffffffffffffffffff1916145b80610731575061073082611ab8565b5b9050919050565b606060028054610747906136c8565b80601f0160208091040260200160405190810160405280929190818152602001828054610773906136c8565b80156107c05780601f10610795576101008083540402835291602001916107c0565b820191906000526020600020905b8154815290600101906020018083116107a357829003601f168201915b50505050509050919050565b81600660008267ffffffffffffffff1667ffffffffffffffff16815260200190815260200160002060040160009054906101000a900460ff16610844576040517f08c379a000000000000000000000000000000000000000000000000000000000815260040161083b90613745565b60405180910390fd5b823373ffffffffffffffffffffffffffffffffffffffff16600660008367ffffffffffffffff1667ffffffffffffffff16815260200190815260200160002060000160089054906101000a900473ffffffffffffffffffffffffffffffffffffffff1673ffffffffffffffffffffffffffffffffffffffff16146108fd576040517f08c379a00000000000000000000000000000000000000000000000000000000081526004016108f4906137b1565b60405180910390fd5b600073ffffffffffffffffffffffffffffffffffffffff168373ffffffffffffffffffffffffffffffffffffffff160361096c576040517f08c379a00000000000000000000000000000000000000000000000000000000081526004016109639061381d565b60405180910390fd5b82600660008667ffffffffffffffff1667ffffffffffffffff16815260200190815260200160002060000160086101000a81548173ffffffffffffffffffffffffffffffffffffffff021916908373ffffffffffffffffffffffffffffffffffffffff16021790555050505050565b6000600454905090565b83600660008267ffffffffffffffff1667ffffffffffffffff16815260200190815260200160002060040160009054906101000a900460ff16610a5d576040517f08c379a0000000000000000000000000000000000000000000000000000000008152600401610a5490613745565b60405180910390fd5b610a65611b22565b600073ffffffffffffffffffffffffffffffffffffffff168473ffffffffffffffffffffffffffffffffffffffff1603610ad4576040517f08c379a0000000000000000000000000000000000000000000000000000000008152600401610acb90613889565b60405180910390fd5b60008311610b17576040517f08c379a0000000000000000000000000000000000000000000000000000000008152600401610b0e906138f5565b60405180910390fd5b600760008573ffffffffffffffffffffffffffffffffffffffff1673ffffffffffffffffffffffffffffffffffffffff16815260200190815260200160002060009054906101000a900460ff16610ba3576040517f08c379a0000000000000000000000000000000000000000000000000000000008152600401610b9a90613961565b60405180910390fd5b6000600660008767ffffffffffffffff1667ffffffffffffffff16815260200190815260200160002090506000848260030154610be091906139b0565b90508160020154811115610c29576040517f08c379a0000000000000000000000000000000000000000000000000000000008152600401610c2090613a30565b60405180910390fd5b610c4e868867ffffffffffffffff168760405180602001604052806000815250611ba9565b8082600301819055508573ffffffffffffffffffffffffffffffffffffffff163373ffffffffffffffffffffffffffffffffffffffff168867ffffffffffffffff167f505e795bdd76479aef4f7c722221332ee444a9669218443932fecc2ad963998d8888604051610cc1929190613a50565b60405180910390a450505050505050565b6000610cdc611c42565b90508073ffffffffffffffffffffffffffffffffffffffff168673ffffffffffffffffffffffffffffffffffffffff1614158015610d215750610d1f86826117e1565b155b15610d655780866040517fe237d922000000000000000000000000000000000000000000000000000000008152600401610d5c929190613a79565b60405180910390fd5b610d728686868686611c4a565b505050505050565b60608151835114610dc657815183516040517f5b059991000000000000000000000000000000000000000000000000000000008152600401610dbd929190613a50565b60405180910390fd5b6000835167ffffffffffffffff811115610de357610de2612e2a565b5b604051908082528060200260200182016040528015610e115781602001602082028036833780820191505090505b50905060005b8451811015610e7857610e4e610e368287611d4290919063ffffffff16565b610e498387611d5690919063ffffffff16565b6105fc565b828281518110610e6157610e60613aa2565b5b602002602001018181525050806001019050610e17565b508091505092915050565b600080610e8f836116af565b119050919050565b610e9f611b22565b610ea96000611d6a565b565b610eb3611b22565b600660008467ffffffffffffffff1667ffffffffffffffff16815260200190815260200160002060040160009054906101000a900460ff1615610f2b576040517f08c379a0000000000000000000000000000000000000000000000000000000008152600401610f2290613b1d565b60405180910390fd5b60008111610f6e576040517f08c379a0000000000000000000000000000000000000000000000000000000008152600401610f6590613b89565b60405180910390fd5b60008211610fb1576040517f08c379a0000000000000000000000000000000000000000000000000000000008152600401610fa890613bf5565b60405180910390fd5b6040518060c001604052808467ffffffffffffffff1681526020013373ffffffffffffffffffffffffffffffffffffffff1681526020018381526020018281526020016000815260200160011515815250600660008567ffffffffffffffff1667ffffffffffffffff16815260200190815260200160002060008201518160000160006101000a81548167ffffffffffffffff021916908367ffffffffffffffff16021790555060208201518160000160086101000a81548173ffffffffffffffffffffffffffffffffffffffff021916908373ffffffffffffffffffffffffffffffffffffffff16021790555060408201518160010155606082015181600201556080820151816003015560a08201518160040160006101000a81548160ff0219169083151502179055509050503373ffffffffffffffffffffffffffffffffffffffff168367ffffffffffffffff167f5db8599f4ab386ddb981b7b59fe345846f43fef0e901858597deb97c5e12fd1c8484604051611133929190613a50565b60405180910390a3505050565b6000600560009054906101000a900473ffffffffffffffffffffffffffffffffffffffff16905090565b611172612a3a565b600660008367ffffffffffffffff1667ffffffffffffffff16815260200190815260200160002060040160009054906101000a900460ff166111e9576040517f08c379a00000000000000000000000000000000000000000000000000000000081526004016111e090613c61565b60405180910390fd5b600660008367ffffffffffffffff1667ffffffffffffffff1681526020019081526020016000206040518060c00160405290816000820160009054906101000a900467ffffffffffffffff1667ffffffffffffffff1667ffffffffffffffff1681526020016000820160089054906101000a900473ffffffffffffffffffffffffffffffffffffffff1673ffffffffffffffffffffffffffffffffffffffff1673ffffffffffffffffffffffffffffffffffffffff1681526020016001820154815260200160028201548152602001600382015481526020016004820160009054906101000a900460ff1615151515815250509050919050565b6112f56112ee611c42565b8383611e30565b5050565b60076020528060005260406000206000915054906101000a900460ff1681565b6000600760008373ffffffffffffffffffffffffffffffffffffffff1673ffffffffffffffffffffffffffffffffffffffff16815260200190815260200160002060009054906101000a900460ff169050919050565b81600660008267ffffffffffffffff1667ffffffffffffffff16815260200190815260200160002060040160009054906101000a900460ff166113e7576040517f08c379a00000000000000000000000000000000000000000000000000000000081526004016113de90613745565b60405180910390fd5b823373ffffffffffffffffffffffffffffffffffffffff16600660008367ffffffffffffffff1667ffffffffffffffff16815260200190815260200160002060000160089054906101000a900473ffffffffffffffffffffffffffffffffffffffff1673ffffffffffffffffffffffffffffffffffffffff16146114a0576040517f08c379a0000000000000000000000000000000000000000000000000000000008152600401611497906137b1565b60405180910390fd5b600083116114e3576040517f08c379a00000000000000000000000000000000000000000000000000000000081526004016114da906138f5565b60405180910390fd5b82471015611526576040517f08c379a000000000000000000000000000000000000000000000000000000000815260040161151d90613ccd565b60405180910390fd5b60003373ffffffffffffffffffffffffffffffffffffffff168460405161154c90613d1e565b60006040518083038185875af1925050503d8060008114611589576040519150601f19603f3d011682016040523d82523d6000602084013e61158e565b606091505b50509050806115d2576040517f08c379a00000000000000000000000000000000000000000000000000000000081526004016115c990613d7f565b60405180910390fd5b3373ffffffffffffffffffffffffffffffffffffffff168567ffffffffffffffff167ff2ae8ee597cdf5ebfb19223f73455040239c4e04153beb399ba5ebb77a00838e866040516116239190612b89565b60405180910390a35050505050565b60066020528060005260406000206000915090508060000160009054906101000a900467ffffffffffffffff16908060000160089054906101000a900473ffffffffffffffffffffffffffffffffffffffff16908060010154908060020154908060030154908060040160009054906101000a900460ff16905086565b600060036000838152602001908152602001600020549050919050565b6116d4611b22565b600073ffffffffffffffffffffffffffffffffffffffff168173ffffffffffffffffffffffffffffffffffffffff1603611743576040517f08c379a000000000000000000000000000000000000000000000000000000000815260040161173a90613deb565b60405180910390fd5b6001600760008373ffffffffffffffffffffffffffffffffffffffff1673ffffffffffffffffffffffffffffffffffffffff16815260200190815260200160002060006101000a81548160ff0219169083151502179055508073ffffffffffffffffffffffffffffffffffffffff167f58d052b1bc711fbe4d875dbe3001969a01a1e190222ffd02168c01c58dd8806560405160405180910390a250565b6000600160008473ffffffffffffffffffffffffffffffffffffffff1673ffffffffffffffffffffffffffffffffffffffff16815260200190815260200160002060008373ffffffffffffffffffffffffffffffffffffffff1673ffffffffffffffffffffffffffffffffffffffff16815260200190815260200160002060009054906101000a900460ff16905092915050565b61187d611b22565b600073ffffffffffffffffffffffffffffffffffffffff168173ffffffffffffffffffffffffffffffffffffffff16036118ec576040517f08c379a00000000000000000000000000000000000000000000000000000000081526004016118e390613deb565b60405180910390fd5b6000600760008373ffffffffffffffffffffffffffffffffffffffff1673ffffffffffffffffffffffffffffffffffffffff16815260200190815260200160002060006101000a81548160ff0219169083151502179055508073ffffffffffffffffffffffffffffffffffffffff167ff1c17763556df78bc208351a44a3321884a234d46c5f9a055d0bf24740f5745c60405160405180910390a250565b6000611994611c42565b90508073ffffffffffffffffffffffffffffffffffffffff168673ffffffffffffffffffffffffffffffffffffffff16141580156119d957506119d786826117e1565b155b15611a1d5780866040517fe237d922000000000000000000000000000000000000000000000000000000008152600401611a14929190613a79565b60405180910390fd5b611a2a8686868686611fa0565b505050505050565b611a3a611b22565b600073ffffffffffffffffffffffffffffffffffffffff168173ffffffffffffffffffffffffffffffffffffffff1603611aac5760006040517f1e4fbdf7000000000000000000000000000000000000000000000000000000008152600401611aa3919061336e565b60405180910390fd5b611ab581611d6a565b50565b60007f01ffc9a7000000000000000000000000000000000000000000000000000000007bffffffffffffffffffffffffffffffffffffffffffffffffffffffff1916827bffffffffffffffffffffffffffffffffffffffffffffffffffffffff1916149050919050565b611b2a611c42565b73ffffffffffffffffffffffffffffffffffffffff16611b48611140565b73ffffffffffffffffffffffffffffffffffffffff1614611ba757611b6b611c42565b6040517f118cdaa7000000000000000000000000000000000000000000000000000000008152600401611b9e919061336e565b60405180910390fd5b565b600073ffffffffffffffffffffffffffffffffffffffff168473ffffffffffffffffffffffffffffffffffffffff1603611c1b5760006040517f57f447ce000000000000000000000000000000000000000000000000000000008152600401611c12919061336e565b60405180910390fd5b600080611c2885856120ab565b91509150611c3a6000878484876120db565b505050505050565b600033905090565b600073ffffffffffffffffffffffffffffffffffffffff168473ffffffffffffffffffffffffffffffffffffffff1603611cbc5760006040517f57f447ce000000000000000000000000000000000000000000000000000000008152600401611cb3919061336e565b60405180910390fd5b600073ffffffffffffffffffffffffffffffffffffffff168573ffffffffffffffffffffffffffffffffffffffff1603611d2e5760006040517f01a83514000000000000000000000000000000000000000000000000000000008152600401611d25919061336e565b60405180910390fd5b611d3b85858585856120db565b5050505050565b600060208202602084010151905092915050565b600060208202602084010151905092915050565b6000600560009054906101000a900473ffffffffffffffffffffffffffffffffffffffff16905081600560006101000a81548173ffffffffffffffffffffffffffffffffffffffff021916908373ffffffffffffffffffffffffffffffffffffffff1602179055508173ffffffffffffffffffffffffffffffffffffffff168173ffffffffffffffffffffffffffffffffffffffff167f8be0079c531659141344cd1fd0a4f28419497f9722a3daafe3b4186f6b6457e060405160405180910390a35050565b600073ffffffffffffffffffffffffffffffffffffffff168273ffffffffffffffffffffffffffffffffffffffff1603611ea25760006040517fced3e100000000000000000000000000000000000000000000000000000000008152600401611e99919061336e565b60405180910390fd5b80600160008573ffffffffffffffffffffffffffffffffffffffff1673ffffffffffffffffffffffffffffffffffffffff16815260200190815260200160002060008473ffffffffffffffffffffffffffffffffffffffff1673ffffffffffffffffffffffffffffffffffffffff16815260200190815260200160002060006101000a81548160ff0219169083151502179055508173ffffffffffffffffffffffffffffffffffffffff168373ffffffffffffffffffffffffffffffffffffffff167f17307eab39ab6107e8899845ad3d59bd9653f200f220920489ca2b5937696c3183604051611f939190612c44565b60405180910390a3505050565b600073ffffffffffffffffffffffffffffffffffffffff168473ffffffffffffffffffffffffffffffffffffffff16036120125760006040517f57f447ce000000000000000000000000000000000000000000000000000000008152600401612009919061336e565b60405180910390fd5b600073ffffffffffffffffffffffffffffffffffffffff168573ffffffffffffffffffffffffffffffffffffffff16036120845760006040517f01a8351400000000000000000000000000000000000000000000000000000000815260040161207b919061336e565b60405180910390fd5b60008061209185856120ab565b915091506120a287878484876120db565b50505050505050565b60608060405191506001825283602083015260408201905060018152826020820152604081016040529250929050565b6120e78585858561218d565b600073ffffffffffffffffffffffffffffffffffffffff168473ffffffffffffffffffffffffffffffffffffffff1614612186576000612125611c42565b90506001845103612175576000612146600086611d5690919063ffffffff16565b9050600061215e600086611d5690919063ffffffff16565b905061216e83898985858961219f565b5050612184565b612183818787878787612353565b5b505b5050505050565b61219984848484612507565b50505050565b60008473ffffffffffffffffffffffffffffffffffffffff163b111561234b578373ffffffffffffffffffffffffffffffffffffffff1663f23a6e6187878686866040518663ffffffff1660e01b8152600401612200959493929190613e60565b6020604051808303816000875af192505050801561223c57506040513d601f19601f820116820180604052508101906122399190613ecf565b60015b6122c0573d806000811461226c576040519150601f19603f3d011682016040523d82523d6000602084013e612271565b606091505b5060008151036122b857846040517f57f447ce0000000000000000000000000000000000000000000000000000000081526004016122af919061336e565b60405180910390fd5b805160208201fd5b63f23a6e6160e01b7bffffffffffffffffffffffffffffffffffffffffffffffffffffffff1916817bffffffffffffffffffffffffffffffffffffffffffffffffffffffff19161461234957846040517f57f447ce000000000000000000000000000000000000000000000000000000008152600401612340919061336e565b60405180910390fd5b505b505050505050565b60008473ffffffffffffffffffffffffffffffffffffffff163b11156124ff578373ffffffffffffffffffffffffffffffffffffffff1663bc197c8187878686866040518663ffffffff1660e01b81526004016123b4959493929190613efc565b6020604051808303816000875af19250505080156123f057506040513d601f19601f820116820180604052508101906123ed9190613ecf565b60015b612474573d8060008114612420576040519150601f19603f3d011682016040523d82523d6000602084013e612425565b606091505b50600081510361246c57846040517f57f447ce000000000000000000000000000000000000000000000000000000008152600401612463919061336e565b60405180910390fd5b805160208201fd5b63bc197c8160e01b7bffffffffffffffffffffffffffffffffffffffffffffffffffffffff1916817bffffffffffffffffffffffffffffffffffffffffffffffffffffffff1916146124fd57846040517f57f447ce0000000000000000000000000000000000000000000000000000000081526004016124f4919061336e565b60405180910390fd5b505b505050505050565b61251384848484612692565b600073ffffffffffffffffffffffffffffffffffffffff168473ffffffffffffffffffffffffffffffffffffffff16036125dd576000805b83518110156125c15760006125698285611d5690919063ffffffff16565b905080600360006125838589611d5690919063ffffffff16565b815260200190815260200160002060008282546125a091906139b0565b9250508190555080836125b391906139b0565b92505080600101905061254b565b5080600460008282546125d491906139b0565b92505081905550505b600073ffffffffffffffffffffffffffffffffffffffff168373ffffffffffffffffffffffffffffffffffffffff160361268c576000805b83518110156126795760006126338285611d5690919063ffffffff16565b9050806003600061264d8589611d5690919063ffffffff16565b815260200190815260200160002060008282540392505081905550808301925050806001019050612615565b5080600460008282540392505081905550505b50505050565b80518251146126dc57815181516040517f5b0599910000000000000000000000000000000000000000000000000000000081526004016126d3929190613a50565b60405180910390fd5b60006126e6611c42565b905060005b83518110156128f55760006127098286611d5690919063ffffffff16565b905060006127208386611d5690919063ffffffff16565b9050600073ffffffffffffffffffffffffffffffffffffffff168873ffffffffffffffffffffffffffffffffffffffff161461284d57600080600084815260200190815260200160002060008a73ffffffffffffffffffffffffffffffffffffffff1673ffffffffffffffffffffffffffffffffffffffff168152602001908152602001600020549050818110156127f557888183856040517f03dee4c50000000000000000000000000000000000000000000000000000000081526004016127ec9493929190613f64565b60405180910390fd5b81810360008085815260200190815260200160002060008b73ffffffffffffffffffffffffffffffffffffffff1673ffffffffffffffffffffffffffffffffffffffff16815260200190815260200160002081905550505b600073ffffffffffffffffffffffffffffffffffffffff168773ffffffffffffffffffffffffffffffffffffffff16146128e8578060008084815260200190815260200160002060008973ffffffffffffffffffffffffffffffffffffffff1673ffffffffffffffffffffffffffffffffffffffff16815260200190815260200160002060008282546128e091906139b0565b925050819055505b50508060010190506126eb565b5060018351036129b4576000612915600085611d5690919063ffffffff16565b9050600061292d600085611d5690919063ffffffff16565b90508573ffffffffffffffffffffffffffffffffffffffff168773ffffffffffffffffffffffffffffffffffffffff168473ffffffffffffffffffffffffffffffffffffffff167fc3d58168c5ae7397731d063d5bbf3d657854427343f4c083240f7aacaa2d0f6285856040516129a5929190613a50565b60405180910390a45050612a33565b8373ffffffffffffffffffffffffffffffffffffffff168573ffffffffffffffffffffffffffffffffffffffff168273ffffffffffffffffffffffffffffffffffffffff167f4a39dc06d4c0dbc64b70af90fd698a233a518aa5d07e595d983b8c0526c8f7fb8686604051612a2a929190613fa9565b60405180910390a45b5050505050565b6040518060c00160405280600067ffffffffffffffff168152602001600073ffffffffffffffffffffffffffffffffffffffff1681526020016000815260200160008152602001600081526020016000151581525090565b6000604051905090565b600080fd5b600080fd5b600073ffffffffffffffffffffffffffffffffffffffff82169050919050565b6000612ad182612aa6565b9050919050565b612ae181612ac6565b8114612aec57600080fd5b50565b600081359050612afe81612ad8565b92915050565b6000819050919050565b612b1781612b04565b8114612b2257600080fd5b50565b600081359050612b3481612b0e565b92915050565b60008060408385031215612b5157612b50612a9c565b5b6000612b5f85828601612aef565b9250506020612b7085828601612b25565b9150509250929050565b612b8381612b04565b82525050565b6000602082019050612b9e6000830184612b7a565b92915050565b60007fffffffff0000000000000000000000000000000000000000000000000000000082169050919050565b612bd981612ba4565b8114612be457600080fd5b50565b600081359050612bf681612bd0565b92915050565b600060208284031215612c1257612c11612a9c565b5b6000612c2084828501612be7565b91505092915050565b60008115159050919050565b612c3e81612c29565b82525050565b6000602082019050612c596000830184612c35565b92915050565b600060208284031215612c7557612c74612a9c565b5b6000612c8384828501612b25565b91505092915050565b600081519050919050565b600082825260208201905092915050565b60005b83811015612cc6578082015181840152602081019050612cab565b60008484015250505050565b6000601f19601f8301169050919050565b6000612cee82612c8c565b612cf88185612c97565b9350612d08818560208601612ca8565b612d1181612cd2565b840191505092915050565b60006020820190508181036000830152612d368184612ce3565b905092915050565b600067ffffffffffffffff82169050919050565b612d5b81612d3e565b8114612d6657600080fd5b50565b600081359050612d7881612d52565b92915050565b60008060408385031215612d9557612d94612a9c565b5b6000612da385828601612d69565b9250506020612db485828601612aef565b9150509250929050565b60008060008060808587031215612dd857612dd7612a9c565b5b6000612de687828801612d69565b9450506020612df787828801612aef565b9350506040612e0887828801612b25565b9250506060612e1987828801612b25565b91505092959194509250565b600080fd5b7f4e487b7100000000000000000000000000000000000000000000000000000000600052604160045260246000fd5b612e6282612cd2565b810181811067ffffffffffffffff82111715612e8157612e80612e2a565b5b80604052505050565b6000612e94612a92565b9050612ea08282612e59565b919050565b600067ffffffffffffffff821115612ec057612ebf612e2a565b5b602082029050602081019050919050565b600080fd5b6000612ee9612ee484612ea5565b612e8a565b90508083825260208201905060208402830185811115612f0c57612f0b612ed1565b5b835b81811015612f355780612f218882612b25565b845260208401935050602081019050612f0e565b5050509392505050565b600082601f830112612f5457612f53612e25565b5b8135612f64848260208601612ed6565b91505092915050565b600080fd5b600067ffffffffffffffff821115612f8d57612f8c612e2a565b5b612f9682612cd2565b9050602081019050919050565b82818337600083830152505050565b6000612fc5612fc084612f72565b612e8a565b905082815260208101848484011115612fe157612fe0612f6d565b5b612fec848285612fa3565b509392505050565b600082601f83011261300957613008612e25565b5b8135613019848260208601612fb2565b91505092915050565b600080600080600060a0868803121561303e5761303d612a9c565b5b600061304c88828901612aef565b955050602061305d88828901612aef565b945050604086013567ffffffffffffffff81111561307e5761307d612aa1565b5b61308a88828901612f3f565b935050606086013567ffffffffffffffff8111156130ab576130aa612aa1565b5b6130b788828901612f3f565b925050608086013567ffffffffffffffff8111156130d8576130d7612aa1565b5b6130e488828901612ff4565b9150509295509295909350565b600067ffffffffffffffff82111561310c5761310b612e2a565b5b602082029050602081019050919050565b600061313061312b846130f1565b612e8a565b9050808382526020820190506020840283018581111561315357613152612ed1565b5b835b8181101561317c57806131688882612aef565b845260208401935050602081019050613155565b5050509392505050565b600082601f83011261319b5761319a612e25565b5b81356131ab84826020860161311d565b91505092915050565b600080604083850312156131cb576131ca612a9c565b5b600083013567ffffffffffffffff8111156131e9576131e8612aa1565b5b6131f585828601613186565b925050602083013567ffffffffffffffff81111561321657613215612aa1565b5b61322285828601612f3f565b9150509250929050565b600081519050919050565b600082825260208201905092915050565b6000819050602082019050919050565b61326181612b04565b82525050565b60006132738383613258565b60208301905092915050565b6000602082019050919050565b60006132978261322c565b6132a18185613237565b93506132ac83613248565b8060005b838110156132dd5781516132c48882613267565b97506132cf8361327f565b9250506001810190506132b0565b5085935050505092915050565b60006020820190508181036000830152613304818461328c565b905092915050565b60008060006060848603121561332557613324612a9c565b5b600061333386828701612d69565b935050602061334486828701612b25565b925050604061335586828701612b25565b9150509250925092565b61336881612ac6565b82525050565b6000602082019050613383600083018461335f565b92915050565b60006020828403121561339f5761339e612a9c565b5b60006133ad84828501612d69565b91505092915050565b6133bf81612d3e565b82525050565b6133ce81612ac6565b82525050565b6133dd81612c29565b82525050565b60c0820160008201516133f960008501826133b6565b50602082015161340c60208501826133c5565b50604082015161341f6040850182613258565b5060608201516134326060850182613258565b5060808201516134456080850182613258565b5060a082015161345860a08501826133d4565b50505050565b600060c08201905061347360008301846133e3565b92915050565b61348281612c29565b811461348d57600080fd5b50565b60008135905061349f81613479565b92915050565b600080604083850312156134bc576134bb612a9c565b5b60006134ca85828601612aef565b92505060206134db85828601613490565b9150509250929050565b6000602082840312156134fb576134fa612a9c565b5b600061350984828501612aef565b91505092915050565b6000806040838503121561352957613528612a9c565b5b600061353785828601612d69565b925050602061354885828601612b25565b9150509250929050565b61355b81612d3e565b82525050565b600060c0820190506135766000830189613552565b613583602083018861335f565b6135906040830187612b7a565b61359d6060830186612b7a565b6135aa6080830185612b7a565b6135b760a0830184612c35565b979650505050505050565b600080604083850312156135d9576135d8612a9c565b5b60006135e785828601612aef565b92505060206135f885828601612aef565b9150509250929050565b600080600080600060a0868803121561361e5761361d612a9c565b5b600061362c88828901612aef565b955050602061363d88828901612aef565b945050604061364e88828901612b25565b935050606061365f88828901612b25565b925050608086013567ffffffffffffffff8111156136805761367f612aa1565b5b61368c88828901612ff4565b9150509295509295909350565b7f4e487b7100000000000000000000000000000000000000000000000000000000600052602260045260246000fd5b600060028204905060018216806136e057607f821691505b6020821081036136f3576136f2613699565b5b50919050565b7f50726f706572747920646f6573206e6f74206578697374000000000000000000600082015250565b600061372f601783612c97565b915061373a826136f9565b602082019050919050565b6000602082019050818103600083015261375e81613722565b9050919050565b7f4f6e6c792070726f70657274792061646d696e00000000000000000000000000600082015250565b600061379b601383612c97565b91506137a682613765565b602082019050919050565b600060208201905081810360008301526137ca8161378e565b9050919050565b7f7a65726f20616464726573730000000000000000000000000000000000000000600082015250565b6000613807600c83612c97565b9150613812826137d1565b602082019050919050565b60006020820190508181036000830152613836816137fa565b9050919050565b7f7265636569766572207a65726f20616464726573730000000000000000000000600082015250565b6000613873601583612c97565b915061387e8261383d565b602082019050919050565b600060208201905081810360008301526138a281613866565b9050919050565b7f616d6f756e74203e203000000000000000000000000000000000000000000000600082015250565b60006138df600a83612c97565b91506138ea826138a9565b602082019050919050565b6000602082019050818103600083015261390e816138d2565b9050919050565b7f5265636569766572206e6f74204b594320766572696669656400000000000000600082015250565b600061394b601983612c97565b915061395682613915565b602082019050919050565b6000602082019050818103600083015261397a8161393e565b9050919050565b7f4e487b7100000000000000000000000000000000000000000000000000000000600052601160045260246000fd5b60006139bb82612b04565b91506139c683612b04565b92508282019050808211156139de576139dd613981565b5b92915050565b7f537570706c79206c696d69742072656163686564000000000000000000000000600082015250565b6000613a1a601483612c97565b9150613a25826139e4565b602082019050919050565b60006020820190508181036000830152613a4981613a0d565b9050919050565b6000604082019050613a656000830185612b7a565b613a726020830184612b7a565b9392505050565b6000604082019050613a8e600083018561335f565b613a9b602083018461335f565b9392505050565b7f4e487b7100000000000000000000000000000000000000000000000000000000600052603260045260246000fd5b7f50726f706572747920616c726561647920696e697469616c697a656400000000600082015250565b6000613b07601c83612c97565b9150613b1282613ad1565b602082019050919050565b60006020820190508181036000830152613b3681613afa565b9050919050565b7f6d6178536861726573206d757374206265203e20300000000000000000000000600082015250565b6000613b73601583612c97565b9150613b7e82613b3d565b602082019050919050565b60006020820190508181036000830152613ba281613b66565b9050919050565b7f70726963655065725368617265206d757374206265203e203000000000000000600082015250565b6000613bdf601983612c97565b9150613bea82613ba9565b602082019050919050565b60006020820190508181036000830152613c0e81613bd2565b9050919050565b7f50726f7065727479206e6f7420666f756e640000000000000000000000000000600082015250565b6000613c4b601283612c97565b9150613c5682613c15565b602082019050919050565b60006020820190508181036000830152613c7a81613c3e565b9050919050565b7f496e73756666696369656e742074726561737572792066756e64730000000000600082015250565b6000613cb7601b83612c97565b9150613cc282613c81565b602082019050919050565b60006020820190508181036000830152613ce681613caa565b9050919050565b600081905092915050565b50565b6000613d08600083613ced565b9150613d1382613cf8565b600082019050919050565b6000613d2982613cfb565b9150819050919050565b7f5472616e73666572206661696c65640000000000000000000000000000000000600082015250565b6000613d69600f83612c97565b9150613d7482613d33565b602082019050919050565b60006020820190508181036000830152613d9881613d5c565b9050919050565b7f5a65726f20616464726573730000000000000000000000000000000000000000600082015250565b6000613dd5600c83612c97565b9150613de082613d9f565b602082019050919050565b60006020820190508181036000830152613e0481613dc8565b9050919050565b600081519050919050565b600082825260208201905092915050565b6000613e3282613e0b565b613e3c8185613e16565b9350613e4c818560208601612ca8565b613e5581612cd2565b840191505092915050565b600060a082019050613e75600083018861335f565b613e82602083018761335f565b613e8f6040830186612b7a565b613e9c6060830185612b7a565b8181036080830152613eae8184613e27565b90509695505050505050565b600081519050613ec981612bd0565b92915050565b600060208284031215613ee557613ee4612a9c565b5b6000613ef384828501613eba565b91505092915050565b600060a082019050613f11600083018861335f565b613f1e602083018761335f565b8181036040830152613f30818661328c565b90508181036060830152613f44818561328c565b90508181036080830152613f588184613e27565b90509695505050505050565b6000608082019050613f79600083018761335f565b613f866020830186612b7a565b613f936040830185612b7a565b613fa06060830184612b7a565b95945050505050565b60006040820190508181036000830152613fc3818561328c565b90508181036020830152613fd7818461328c565b9050939250505056fea264697066735822122025f0947aaba8c9770b970fa8c07925e643fa3a918d084eb6300992b469e7062264736f6c634300081c0033",
  "linkReferences": {},
  "deployedLinkReferences": {}
}